{
  "contractName": "PatrickiezStaking",
  "abi": [
    {
      "inputs": [
        {
          "internalType": "contract IERC721A",
          "name": "_nftCollection",
          "type": "address"
        },
        {
          "internalType": "contract IERC20",
          "name": "_rewardsToken",
          "type": "address"
        }
      ],
      "stateMutability": "nonpayable",
      "type": "constructor"
    },
    {
      "inputs": [],
      "name": "nftCollection",
      "outputs": [
        {
          "internalType": "contract IERC721A",
          "name": "",
          "type": "address"
        }
      ],
      "stateMutability": "view",
      "type": "function"
    },
    {
      "inputs": [],
      "name": "rewardsToken",
      "outputs": [
        {
          "internalType": "contract IERC20",
          "name": "",
          "type": "address"
        }
      ],
      "stateMutability": "view",
      "type": "function"
    },
    {
      "inputs": [
        {
          "internalType": "uint256",
          "name": "",
          "type": "uint256"
        }
      ],
      "name": "stakerAddress",
      "outputs": [
        {
          "internalType": "address",
          "name": "",
          "type": "address"
        }
      ],
      "stateMutability": "view",
      "type": "function"
    },
    {
      "inputs": [
        {
          "internalType": "address",
          "name": "",
          "type": "address"
        }
      ],
      "name": "stakers",
      "outputs": [
        {
          "internalType": "uint256",
          "name": "amountStaked",
          "type": "uint256"
        },
        {
          "internalType": "uint256",
          "name": "timeOfLastUpdate",
          "type": "uint256"
        },
        {
          "internalType": "uint256",
          "name": "unclaimedRewards",
          "type": "uint256"
        }
      ],
      "stateMutability": "view",
      "type": "function"
    },
    {
      "stateMutability": "payable",
      "type": "receive"
    },
    {
      "inputs": [
        {
          "internalType": "uint256",
          "name": "_tokenId",
          "type": "uint256"
        }
      ],
      "name": "stake",
      "outputs": [],
      "stateMutability": "nonpayable",
      "type": "function"
    },
    {
      "inputs": [
        {
          "internalType": "uint256",
          "name": "_tokenId",
          "type": "uint256"
        }
      ],
      "name": "unstake",
      "outputs": [],
      "stateMutability": "nonpayable",
      "type": "function"
    },
    {
      "inputs": [],
      "name": "claimRewards",
      "outputs": [],
      "stateMutability": "nonpayable",
      "type": "function"
    },
    {
      "inputs": [
        {
          "internalType": "address",
          "name": "_staker",
          "type": "address"
        }
      ],
      "name": "getStakedTokens",
      "outputs": [
        {
          "components": [
            {
              "internalType": "address",
              "name": "staker",
              "type": "address"
            },
            {
              "internalType": "uint256",
              "name": "tokenId",
              "type": "uint256"
            }
          ],
          "internalType": "struct PatrickiezStaking.StakedToken[]",
          "name": "",
          "type": "tuple[]"
        }
      ],
      "stateMutability": "view",
      "type": "function"
    },
    {
      "inputs": [
        {
          "internalType": "address",
          "name": "_staker",
          "type": "address"
        }
      ],
      "name": "availableRewards",
      "outputs": [
        {
          "internalType": "uint256",
          "name": "",
          "type": "uint256"
        }
      ],
      "stateMutability": "view",
      "type": "function"
    }
  ],
  "bytecode": "0x60c06040526103e8600160006101000a81548161ffff021916908361ffff1602179055503480156200003057600080fd5b50604051620026cb380380620026cb833981810160405281019062000056919062000191565b60016000819055508073ffffffffffffffffffffffffffffffffffffffff1660808173ffffffffffffffffffffffffffffffffffffffff16815250508173ffffffffffffffffffffffffffffffffffffffff1660a08173ffffffffffffffffffffffffffffffffffffffff16815250505050620001d8565b600080fd5b600073ffffffffffffffffffffffffffffffffffffffff82169050919050565b60006200010082620000d3565b9050919050565b60006200011482620000f3565b9050919050565b620001268162000107565b81146200013257600080fd5b50565b60008151905062000146816200011b565b92915050565b60006200015982620000f3565b9050919050565b6200016b816200014c565b81146200017757600080fd5b50565b6000815190506200018b8162000160565b92915050565b60008060408385031215620001ab57620001aa620000ce565b5b6000620001bb8582860162000135565b9250506020620001ce858286016200017a565b9150509250929050565b60805160a0516124b16200021a600039600081816108ce01528181610e0401528181610ea401526111d4015260008181610aa4015261126f01526124b16000f3fe60806040526004361061008a5760003560e01c80639168ae72116100595780639168ae721461016757806394067045146101a6578063a694fc3a146101e3578063d1af0c7d1461020c578063f854a27f14610237576100ba565b80632e17de78146100bf578063372500ab146100e857806363c28db1146100ff5780636588103b1461013c576100ba565b366100ba576100b8343373ffffffffffffffffffffffffffffffffffffffff1661027490919063ffffffff16565b005b600080fd5b3480156100cb57600080fd5b506100e660048036038101906100e191906117a8565b610368565b005b3480156100f457600080fd5b506100fd610967565b005b34801561010b57600080fd5b5061012660048036038101906101219190611833565b610aeb565b604051610133919061195c565b60405180910390f35b34801561014857600080fd5b50610151610e02565b60405161015e91906119dd565b60405180910390f35b34801561017357600080fd5b5061018e60048036038101906101899190611833565b610e26565b60405161019d93929190611a07565b60405180910390f35b3480156101b257600080fd5b506101cd60048036038101906101c891906117a8565b610e50565b6040516101da9190611a4d565b60405180910390f35b3480156101ef57600080fd5b5061020a600480360381019061020591906117a8565b610e83565b005b34801561021857600080fd5b5061022161126d565b60405161022e9190611a89565b60405180910390f35b34801561024357600080fd5b5061025e60048036038101906102599190611833565b611291565b60405161026b9190611aa4565b60405180910390f35b804710156102b7576040517f08c379a00000000000000000000000000000000000000000000000000000000081526004016102ae90611b1c565b60405180910390fd5b60008273ffffffffffffffffffffffffffffffffffffffff16826040516102dd90611b6d565b60006040518083038185875af1925050503d806000811461031a576040519150601f19603f3d011682016040523d82523d6000602084013e61031f565b606091505b5050905080610363576040517f08c379a000000000000000000000000000000000000000000000000000000000815260040161035a90611bf4565b60405180910390fd5b505050565b6103706112f0565b6000600260003373ffffffffffffffffffffffffffffffffffffffff1673ffffffffffffffffffffffffffffffffffffffff16815260200190815260200160002060000154116103f5576040517f08c379a00000000000000000000000000000000000000000000000000000000081526004016103ec90611c60565b60405180910390fd5b600073ffffffffffffffffffffffffffffffffffffffff166003600083815260200190815260200160002060009054906101000a900473ffffffffffffffffffffffffffffffffffffffff1673ffffffffffffffffffffffffffffffffffffffff1603610497576040517f08c379a000000000000000000000000000000000000000000000000000000000815260040161048e90611cf2565b60405180910390fd5b3373ffffffffffffffffffffffffffffffffffffffff166003600083815260200190815260200160002060009054906101000a900473ffffffffffffffffffffffffffffffffffffffff1673ffffffffffffffffffffffffffffffffffffffff1614610538576040517f08c379a000000000000000000000000000000000000000000000000000000000815260040161052f90611d84565b60405180910390fd5b600260003373ffffffffffffffffffffffffffffffffffffffff1673ffffffffffffffffffffffffffffffffffffffff168152602001908152602001600020600001600081548092919061058b90611dd3565b91905055506105993361133f565b600260003373ffffffffffffffffffffffffffffffffffffffff1673ffffffffffffffffffffffffffffffffffffffff16815260200190815260200160002060020160008282546105ea9190611dfc565b9250508190555042600260003373ffffffffffffffffffffffffffffffffffffffff1673ffffffffffffffffffffffffffffffffffffffff1681526020019081526020016000206001018190555060006003600083815260200190815260200160002060006101000a81548173ffffffffffffffffffffffffffffffffffffffff021916908373ffffffffffffffffffffffffffffffffffffffff160217905550600080600090505b600260003373ffffffffffffffffffffffffffffffffffffffff1673ffffffffffffffffffffffffffffffffffffffff168152602001908152602001600020600301805490508110156108265782600260003373ffffffffffffffffffffffffffffffffffffffff1673ffffffffffffffffffffffffffffffffffffffff168152602001908152602001600020600301828154811061073557610734611e30565b5b9060005260206000209060020201600101541480156108065750600073ffffffffffffffffffffffffffffffffffffffff16600260003373ffffffffffffffffffffffffffffffffffffffff1673ffffffffffffffffffffffffffffffffffffffff16815260200190815260200160002060030182815481106107bb576107ba611e30565b5b906000526020600020906002020160000160009054906101000a900473ffffffffffffffffffffffffffffffffffffffff1673ffffffffffffffffffffffffffffffffffffffff1614155b1561081357809150610826565b808061081e90611e5f565b915050610693565b506000600260003373ffffffffffffffffffffffffffffffffffffffff1673ffffffffffffffffffffffffffffffffffffffff168152602001908152602001600020600301828154811061087d5761087c611e30565b5b906000526020600020906002020160000160006101000a81548173ffffffffffffffffffffffffffffffffffffffff021916908373ffffffffffffffffffffffffffffffffffffffff1602179055507f000000000000000000000000000000000000000000000000000000000000000073ffffffffffffffffffffffffffffffffffffffff166323b872dd3033856040518463ffffffff1660e01b815260040161092993929190611ea7565b600060405180830381600087803b15801561094357600080fd5b505af1158015610957573d6000803e3d6000fd5b5050505050610964611419565b50565b60006109723361133f565b600260003373ffffffffffffffffffffffffffffffffffffffff1673ffffffffffffffffffffffffffffffffffffffff16815260200190815260200160002060020160008282546109c39190611dfc565b925050819055905060008111610a0e576040517f08c379a0000000000000000000000000000000000000000000000000000000008152600401610a0590611f2a565b60405180910390fd5b6000600260003373ffffffffffffffffffffffffffffffffffffffff1673ffffffffffffffffffffffffffffffffffffffff1681526020019081526020016000206002018190555042600260003373ffffffffffffffffffffffffffffffffffffffff1673ffffffffffffffffffffffffffffffffffffffff16815260200190815260200160002060010181905550610ae833827f000000000000000000000000000000000000000000000000000000000000000073ffffffffffffffffffffffffffffffffffffffff166114239092919063ffffffff16565b50565b60606000600260008473ffffffffffffffffffffffffffffffffffffffff1673ffffffffffffffffffffffffffffffffffffffff168152602001908152602001600020600001541115610da5576000600260008473ffffffffffffffffffffffffffffffffffffffff1673ffffffffffffffffffffffffffffffffffffffff16815260200190815260200160002060000154905060008167ffffffffffffffff811115610b9b57610b9a611f4a565b5b604051908082528060200260200182016040528015610bd457816020015b610bc161173d565b815260200190600190039081610bb95790505b50905060005b82811015610d9a57600073ffffffffffffffffffffffffffffffffffffffff16600260008773ffffffffffffffffffffffffffffffffffffffff1673ffffffffffffffffffffffffffffffffffffffff1681526020019081526020016000206003018281548110610c4e57610c4d611e30565b5b906000526020600020906002020160000160009054906101000a900473ffffffffffffffffffffffffffffffffffffffff1673ffffffffffffffffffffffffffffffffffffffff1614610d8757600260008673ffffffffffffffffffffffffffffffffffffffff1673ffffffffffffffffffffffffffffffffffffffff1681526020019081526020016000206003018181548110610cef57610cee611e30565b5b90600052602060002090600202016040518060400160405290816000820160009054906101000a900473ffffffffffffffffffffffffffffffffffffffff1673ffffffffffffffffffffffffffffffffffffffff1673ffffffffffffffffffffffffffffffffffffffff168152602001600182015481525050828281518110610d7b57610d7a611e30565b5b60200260200101819052505b8080610d9290611e5f565b915050610bda565b508092505050610dfd565b600067ffffffffffffffff811115610dc057610dbf611f4a565b5b604051908082528060200260200182016040528015610df957816020015b610de661173d565b815260200190600190039081610dde5790505b5090505b919050565b7f000000000000000000000000000000000000000000000000000000000000000081565b60026020528060005260406000206000915090508060000154908060010154908060020154905083565b60036020528060005260406000206000915054906101000a900473ffffffffffffffffffffffffffffffffffffffff1681565b610e8b6112f0565b3373ffffffffffffffffffffffffffffffffffffffff167f000000000000000000000000000000000000000000000000000000000000000073ffffffffffffffffffffffffffffffffffffffff16636352211e836040518263ffffffff1660e01b8152600401610efb9190611aa4565b602060405180830381865afa158015610f18573d6000803e3d6000fd5b505050506040513d601f19601f82011682018060405250810190610f3c9190611f8e565b73ffffffffffffffffffffffffffffffffffffffff1614610f92576040517f08c379a0000000000000000000000000000000000000000000000000000000008152600401610f8990612007565b60405180910390fd5b600260003373ffffffffffffffffffffffffffffffffffffffff1673ffffffffffffffffffffffffffffffffffffffff1681526020019081526020016000206000016000815480929190610fe590611e5f565b9190505550610ff33361133f565b600260003373ffffffffffffffffffffffffffffffffffffffff1673ffffffffffffffffffffffffffffffffffffffff16815260200190815260200160002060020160008282546110449190611dfc565b9250508190555042600260003373ffffffffffffffffffffffffffffffffffffffff1673ffffffffffffffffffffffffffffffffffffffff16815260200190815260200160002060010181905550336003600083815260200190815260200160002060006101000a81548173ffffffffffffffffffffffffffffffffffffffff021916908373ffffffffffffffffffffffffffffffffffffffff160217905550600060405180604001604052803373ffffffffffffffffffffffffffffffffffffffff168152602001838152509050600260003373ffffffffffffffffffffffffffffffffffffffff1673ffffffffffffffffffffffffffffffffffffffff16815260200190815260200160002060030181908060018154018082558091505060019003906000526020600020906002020160009091909190915060008201518160000160006101000a81548173ffffffffffffffffffffffffffffffffffffffff021916908373ffffffffffffffffffffffffffffffffffffffff1602179055506020820151816001015550507f000000000000000000000000000000000000000000000000000000000000000073ffffffffffffffffffffffffffffffffffffffff166342842e0e3330856040518463ffffffff1660e01b815260040161122f93929190611ea7565b600060405180830381600087803b15801561124957600080fd5b505af115801561125d573d6000803e3d6000fd5b505050505061126a611419565b50565b7f000000000000000000000000000000000000000000000000000000000000000081565b600061129c8261133f565b600260008473ffffffffffffffffffffffffffffffffffffffff1673ffffffffffffffffffffffffffffffffffffffff168152602001908152602001600020600201546112e99190611dfc565b9050919050565b600260005403611335576040517f08c379a000000000000000000000000000000000000000000000000000000000815260040161132c90612073565b60405180910390fd5b6002600081905550565b600080600260008473ffffffffffffffffffffffffffffffffffffffff1673ffffffffffffffffffffffffffffffffffffffff16815260200190815260200160002060010154426113909190612093565b90506000600260008573ffffffffffffffffffffffffffffffffffffffff1673ffffffffffffffffffffffffffffffffffffffff168152602001908152602001600020600001549050603c600160009054906101000a900461ffff1661ffff1682846113fc91906120c7565b61140691906120c7565b6114109190612138565b92505050919050565b6001600081905550565b6114a48363a9059cbb60e01b8484604051602401611442929190612169565b604051602081830303815290604052907bffffffffffffffffffffffffffffffffffffffffffffffffffffffff19166020820180517bffffffffffffffffffffffffffffffffffffffffffffffffffffffff83818316178352505050506114a9565b505050565b600061150b826040518060400160405280602081526020017f5361666545524332303a206c6f772d6c6576656c2063616c6c206661696c65648152508573ffffffffffffffffffffffffffffffffffffffff166115709092919063ffffffff16565b905060008151111561156b578080602001905181019061152b91906121ca565b61156a576040517f08c379a000000000000000000000000000000000000000000000000000000000815260040161156190612269565b60405180910390fd5b5b505050565b606061157f8484600085611588565b90509392505050565b6060824710156115cd576040517f08c379a00000000000000000000000000000000000000000000000000000000081526004016115c4906122fb565b60405180910390fd5b6000808673ffffffffffffffffffffffffffffffffffffffff1685876040516115f69190612381565b60006040518083038185875af1925050503d8060008114611633576040519150601f19603f3d011682016040523d82523d6000602084013e611638565b606091505b509150915061164987838387611655565b92505050949350505050565b606083156116b75760008351036116af5761166f856116ca565b6116ae576040517f08c379a00000000000000000000000000000000000000000000000000000000081526004016116a5906123e4565b60405180910390fd5b5b8290506116c2565b6116c183836116ed565b5b949350505050565b6000808273ffffffffffffffffffffffffffffffffffffffff163b119050919050565b6000825111156117005781518083602001fd5b806040517f08c379a00000000000000000000000000000000000000000000000000000000081526004016117349190612459565b60405180910390fd5b6040518060400160405280600073ffffffffffffffffffffffffffffffffffffffff168152602001600081525090565b600080fd5b6000819050919050565b61178581611772565b811461179057600080fd5b50565b6000813590506117a28161177c565b92915050565b6000602082840312156117be576117bd61176d565b5b60006117cc84828501611793565b91505092915050565b600073ffffffffffffffffffffffffffffffffffffffff82169050919050565b6000611800826117d5565b9050919050565b611810816117f5565b811461181b57600080fd5b50565b60008135905061182d81611807565b92915050565b6000602082840312156118495761184861176d565b5b60006118578482850161181e565b91505092915050565b600081519050919050565b600082825260208201905092915050565b6000819050602082019050919050565b611895816117f5565b82525050565b6118a481611772565b82525050565b6040820160008201516118c0600085018261188c565b5060208201516118d3602085018261189b565b50505050565b60006118e583836118aa565b60408301905092915050565b6000602082019050919050565b600061190982611860565b611913818561186b565b935061191e8361187c565b8060005b8381101561194f57815161193688826118d9565b9750611941836118f1565b925050600181019050611922565b5085935050505092915050565b6000602082019050818103600083015261197681846118fe565b905092915050565b6000819050919050565b60006119a361199e611999846117d5565b61197e565b6117d5565b9050919050565b60006119b582611988565b9050919050565b60006119c7826119aa565b9050919050565b6119d7816119bc565b82525050565b60006020820190506119f260008301846119ce565b92915050565b611a0181611772565b82525050565b6000606082019050611a1c60008301866119f8565b611a2960208301856119f8565b611a3660408301846119f8565b949350505050565b611a47816117f5565b82525050565b6000602082019050611a626000830184611a3e565b92915050565b6000611a73826119aa565b9050919050565b611a8381611a68565b82525050565b6000602082019050611a9e6000830184611a7a565b92915050565b6000602082019050611ab960008301846119f8565b92915050565b600082825260208201905092915050565b7f416464726573733a20696e73756666696369656e742062616c616e6365000000600082015250565b6000611b06601d83611abf565b9150611b1182611ad0565b602082019050919050565b60006020820190508181036000830152611b3581611af9565b9050919050565b600081905092915050565b50565b6000611b57600083611b3c565b9150611b6282611b47565b600082019050919050565b6000611b7882611b4a565b9150819050919050565b7f416464726573733a20756e61626c6520746f2073656e642076616c75652c207260008201527f6563697069656e74206d61792068617665207265766572746564000000000000602082015250565b6000611bde603a83611abf565b9150611be982611b82565b604082019050919050565b60006020820190508181036000830152611c0d81611bd1565b9050919050565b7f596f752068617665206e6f20746f6b656e73207374616b656421000000000000600082015250565b6000611c4a601a83611abf565b9150611c5582611c14565b602082019050919050565b60006020820190508181036000830152611c7981611c3d565b9050919050565b7f546f6b656e206973206e6f74207374616b6564206f7220646f65736e2774206560008201527f7869737400000000000000000000000000000000000000000000000000000000602082015250565b6000611cdc602483611abf565b9150611ce782611c80565b604082019050919050565b60006020820190508181036000830152611d0b81611ccf565b9050919050565b7f54686174206973206e6f7420796f757220746f6b656e20746f20756e7374616b60008201527f6500000000000000000000000000000000000000000000000000000000000000602082015250565b6000611d6e602183611abf565b9150611d7982611d12565b604082019050919050565b60006020820190508181036000830152611d9d81611d61565b9050919050565b7f4e487b7100000000000000000000000000000000000000000000000000000000600052601160045260246000fd5b6000611dde82611772565b915060008203611df157611df0611da4565b5b600182039050919050565b6000611e0782611772565b9150611e1283611772565b9250828201905080821115611e2a57611e29611da4565b5b92915050565b7f4e487b7100000000000000000000000000000000000000000000000000000000600052603260045260246000fd5b6000611e6a82611772565b91507fffffffffffffffffffffffffffffffffffffffffffffffffffffffffffffffff8203611e9c57611e9b611da4565b5b600182019050919050565b6000606082019050611ebc6000830186611a3e565b611ec96020830185611a3e565b611ed660408301846119f8565b949350505050565b7f596f7520646f6e2774206861766520616e797468696e6720746f20636c61696d600082015250565b6000611f14602083611abf565b9150611f1f82611ede565b602082019050919050565b60006020820190508181036000830152611f4381611f07565b9050919050565b7f4e487b7100000000000000000000000000000000000000000000000000000000600052604160045260246000fd5b600081519050611f8881611807565b92915050565b600060208284031215611fa457611fa361176d565b5b6000611fb284828501611f79565b91505092915050565b7f596f7520646f206e6f74206f776e207468617420746f6b656e21000000000000600082015250565b6000611ff1601a83611abf565b9150611ffc82611fbb565b602082019050919050565b6000602082019050818103600083015261202081611fe4565b9050919050565b7f5265656e7472616e637947756172643a207265656e7472616e742063616c6c00600082015250565b600061205d601f83611abf565b915061206882612027565b602082019050919050565b6000602082019050818103600083015261208c81612050565b9050919050565b600061209e82611772565b91506120a983611772565b92508282039050818111156120c1576120c0611da4565b5b92915050565b60006120d282611772565b91506120dd83611772565b92508282026120eb81611772565b9150828204841483151761210257612101611da4565b5b5092915050565b7f4e487b7100000000000000000000000000000000000000000000000000000000600052601260045260246000fd5b600061214382611772565b915061214e83611772565b92508261215e5761215d612109565b5b828204905092915050565b600060408201905061217e6000830185611a3e565b61218b60208301846119f8565b9392505050565b60008115159050919050565b6121a781612192565b81146121b257600080fd5b50565b6000815190506121c48161219e565b92915050565b6000602082840312156121e0576121df61176d565b5b60006121ee848285016121b5565b91505092915050565b7f5361666545524332303a204552433230206f7065726174696f6e20646964206e60008201527f6f74207375636365656400000000000000000000000000000000000000000000602082015250565b6000612253602a83611abf565b915061225e826121f7565b604082019050919050565b6000602082019050818103600083015261228281612246565b9050919050565b7f416464726573733a20696e73756666696369656e742062616c616e636520666f60008201527f722063616c6c0000000000000000000000000000000000000000000000000000602082015250565b60006122e5602683611abf565b91506122f082612289565b604082019050919050565b60006020820190508181036000830152612314816122d8565b9050919050565b600081519050919050565b60005b83811015612344578082015181840152602081019050612329565b60008484015250505050565b600061235b8261231b565b6123658185611b3c565b9350612375818560208601612326565b80840191505092915050565b600061238d8284612350565b915081905092915050565b7f416464726573733a2063616c6c20746f206e6f6e2d636f6e7472616374000000600082015250565b60006123ce601d83611abf565b91506123d982612398565b602082019050919050565b600060208201905081810360008301526123fd816123c1565b9050919050565b600081519050919050565b6000601f19601f8301169050919050565b600061242b82612404565b6124358185611abf565b9350612445818560208601612326565b61244e8161240f565b840191505092915050565b600060208201905081810360008301526124738184612420565b90509291505056fea2646970667358221220238129e70fcb7f2b75c03c065aa1b4071ec0257833635ca6be21b04867ee474764736f6c63430008110033",
  "immutableReferences": {
    "1002": [
      {
        "length": 32,
        "start": 2724
      },
      {
        "length": 32,
        "start": 4719
      }
    ],
    "1005": [
      {
        "length": 32,
        "start": 2254
      },
      {
        "length": 32,
        "start": 3588
      },
      {
        "length": 32,
        "start": 3748
      },
      {
        "length": 32,
        "start": 4564
      }
    ]
  },
  "source": "// SPDX-License-Identifier: MIT\r\n\r\npragma solidity ^0.8.17;\r\n\r\nimport \"@openzeppelin/contracts/token/ERC20/IERC20.sol\";\r\nimport \"@openzeppelin/contracts/token/ERC20/utils/SafeERC20.sol\";\r\nimport \"erc721a/contracts/IERC721A.sol\";\r\nimport \"@openzeppelin/contracts/security/ReentrancyGuard.sol\";\r\n\r\n\r\ncontract PatrickiezStaking is ReentrancyGuard {\r\n\r\n    using SafeERC20 for IERC20;\r\n    using Address for address payable;\r\n\r\n    IERC20 public immutable rewardsToken;\r\n    IERC721A public immutable nftCollection;\r\n\r\n    uint16 private rewardsPerMinute = 1000;\r\n\r\n    mapping(address => Staker) public stakers;\r\n    mapping(uint256 => address) public stakerAddress;\r\n\r\n    struct StakedToken {\r\n        address staker;\r\n        uint256 tokenId;\r\n    }\r\n\r\n    struct Staker {\r\n        uint256 amountStaked;\r\n        uint256 timeOfLastUpdate;\r\n        uint256 unclaimedRewards;\r\n        StakedToken[] tokens;\r\n    }\r\n\r\n    constructor(IERC721A _nftCollection, IERC20 _rewardsToken){\r\n        rewardsToken = _rewardsToken;\r\n        nftCollection = _nftCollection;\r\n    }\r\n    \r\n    receive() external payable {\r\n        payable(msg.sender).sendValue(msg.value);\r\n    }\r\n\r\n  \r\n    function stake(uint256 _tokenId) external nonReentrant {\r\n        require(nftCollection.ownerOf(_tokenId) == msg.sender, \"You do not own that token!\");\r\n\r\n        stakers[msg.sender].amountStaked++;\r\n\r\n        stakers[msg.sender].unclaimedRewards += calculateRewards(msg.sender);\r\n\r\n        stakers[msg.sender].timeOfLastUpdate = block.timestamp;\r\n\r\n        stakerAddress[_tokenId] = msg.sender;\r\n        \r\n        StakedToken memory _toPush = StakedToken(msg.sender, _tokenId);\r\n\r\n        stakers[msg.sender].tokens.push(_toPush);\r\n\r\n        nftCollection.safeTransferFrom(msg.sender, address(this), _tokenId);\r\n\r\n    }\r\n\r\n\r\n    function unstake(uint256 _tokenId) external nonReentrant {\r\n        require(stakers[msg.sender].amountStaked > 0, \"You have no tokens staked!\");\r\n        require(stakerAddress[_tokenId] != address(0), \"Token is not staked or doesn't exist\");\r\n        require(stakerAddress[_tokenId] == msg.sender, \"That is not your token to unstake\");\r\n\r\n        stakers[msg.sender].amountStaked--;\r\n\r\n        stakers[msg.sender].unclaimedRewards += calculateRewards(msg.sender);\r\n\r\n        stakers[msg.sender].timeOfLastUpdate = block.timestamp;\r\n\r\n        stakerAddress[_tokenId] = address(0);\r\n\r\n        uint256 index;\r\n\r\n        for(uint i = 0; i< stakers[msg.sender].tokens.length; i++){\r\n            if(stakers[msg.sender].tokens[i].tokenId == _tokenId\r\n                &&\r\n                stakers[msg.sender].tokens[i].staker != address(0))\r\n            {\r\n                index = i;\r\n                break;\r\n            }\r\n        }\r\n\r\n        stakers[msg.sender].tokens[index].staker = address(0);\r\n\r\n        nftCollection.transferFrom(address(this), msg.sender, _tokenId);\r\n\r\n    }\r\n\r\n    function claimRewards() external {\r\n        uint256 _rewards = stakers[msg.sender].unclaimedRewards += calculateRewards(msg.sender);\r\n        require(_rewards > 0, \"You don't have anything to claim\");\r\n        stakers[msg.sender].unclaimedRewards = 0;\r\n        stakers[msg.sender].timeOfLastUpdate = block.timestamp;\r\n        rewardsToken.safeTransfer(msg.sender, _rewards);\r\n    }\r\n\r\n    //multiply current rate by (duration staked*number of NFTs)\r\n    //Rate = 1000 per minute per NFT\r\n    function calculateRewards(address _staker) internal view returns(uint256) {\r\n        uint256 _duration = block.timestamp - stakers[_staker].timeOfLastUpdate;\r\n        uint256 _amount = stakers[_staker].amountStaked;\r\n        return(((_duration*_amount)*rewardsPerMinute)/60);\r\n    }\r\n\r\n    function getStakedTokens(address _staker) external view returns(StakedToken[] memory){\r\n        if(stakers[_staker].amountStaked > 0){\r\n            uint256 _len = stakers[_staker].amountStaked;\r\n            StakedToken[] memory _stakedTokens = new StakedToken[](_len);\r\n\r\n            for(uint i = 0; i < _len; i++){\r\n                if(stakers[_staker].tokens[i].staker != address(0)){\r\n                    _stakedTokens[i] = stakers[_staker].tokens[i];\r\n                }\r\n            }\r\n\r\n            return _stakedTokens;\r\n\r\n\r\n        } else {\r\n            return new StakedToken[](0);\r\n        }\r\n    }\r\n\r\n    function availableRewards(address _staker) public view returns(uint256){\r\n        return stakers[_staker].unclaimedRewards + calculateRewards(_staker);\r\n    }\r\n\r\n}\r\n",
  "sourcePath": "/mnt/c/Users/danie/OneDrive/Desktop/Programming/NFT/ERC721AStaking/contracts/PatrickiezStaking.sol",
  "compiler": {
    "name": "solc",
    "version": "0.8.17+commit.8df45f5f.Emscripten.clang"
  },
  "schemaVersion": "3.4.11",
  "updatedAt": "2023-01-12T11:39:36.772Z",
  "devdoc": {
    "kind": "dev",
    "methods": {},
    "version": 1
  },
  "userdoc": {
    "kind": "user",
    "methods": {},
    "version": 1
  }
}